{
  "contractName": "Inscription",
  "abi": [
    {
      "constant": false,
      "inputs": [
        {
          "internalType": "string",
          "name": "name",
          "type": "string"
        }
      ],
      "name": "setName",
      "outputs": [],
      "payable": false,
      "stateMutability": "nonpayable",
      "type": "function"
    },
    {
      "constant": false,
      "inputs": [
        {
          "internalType": "uint64",
          "name": "studentCode",
          "type": "uint64"
        }
      ],
      "name": "setStudentCode",
      "outputs": [],
      "payable": false,
      "stateMutability": "nonpayable",
      "type": "function"
    },
    {
      "constant": false,
      "inputs": [
        {
          "internalType": "uint16",
          "name": "signatureCode",
          "type": "uint16"
        }
      ],
      "name": "setSignatureCode",
      "outputs": [],
      "payable": false,
      "stateMutability": "nonpayable",
      "type": "function"
    },
    {
      "constant": false,
      "inputs": [
        {
          "internalType": "string",
          "name": "studentEmail",
          "type": "string"
        }
      ],
      "name": "setStudentEmail",
      "outputs": [],
      "payable": false,
      "stateMutability": "nonpayable",
      "type": "function"
    },
    {
      "constant": false,
      "inputs": [
        {
          "internalType": "uint16",
          "name": "investigationGroupCode",
          "type": "uint16"
        }
      ],
      "name": "setInvestigationGroupCode",
      "outputs": [],
      "payable": false,
      "stateMutability": "nonpayable",
      "type": "function"
    },
    {
      "constant": false,
      "inputs": [
        {
          "internalType": "uint64",
          "name": "professorCode",
          "type": "uint64"
        }
      ],
      "name": "setProfessorCode",
      "outputs": [],
      "payable": false,
      "stateMutability": "nonpayable",
      "type": "function"
    },
    {
      "constant": false,
      "inputs": [
        {
          "internalType": "string",
          "name": "projectObjective",
          "type": "string"
        }
      ],
      "name": "setProjectObjective",
      "outputs": [],
      "payable": false,
      "stateMutability": "nonpayable",
      "type": "function"
    },
    {
      "constant": false,
      "inputs": [
        {
          "internalType": "uint16",
          "name": "codeBD",
          "type": "uint16"
        }
      ],
      "name": "setCodeBD",
      "outputs": [],
      "payable": false,
      "stateMutability": "nonpayable",
      "type": "function"
    },
    {
      "constant": false,
      "inputs": [
        {
          "internalType": "uint256",
          "name": "direction",
          "type": "uint256"
        }
      ],
      "name": "store",
      "outputs": [],
      "payable": false,
      "stateMutability": "nonpayable",
      "type": "function"
    },
    {
      "constant": true,
      "inputs": [
        {
          "internalType": "uint256",
          "name": "direction",
          "type": "uint256"
        }
      ],
      "name": "retrieve",
      "outputs": [
        {
          "components": [
            {
              "internalType": "string",
              "name": "projectName",
              "type": "string"
            },
            {
              "internalType": "uint64",
              "name": "studentCode",
              "type": "uint64"
            },
            {
              "internalType": "uint16",
              "name": "signatureCode",
              "type": "uint16"
            },
            {
              "internalType": "string",
              "name": "studentEmail",
              "type": "string"
            },
            {
              "internalType": "uint16",
              "name": "investigationGroupCode",
              "type": "uint16"
            },
            {
              "internalType": "uint64",
              "name": "professorCode",
              "type": "uint64"
            },
            {
              "internalType": "string",
              "name": "projectObjective",
              "type": "string"
            },
            {
              "internalType": "uint16",
              "name": "codeBD",
              "type": "uint16"
            }
          ],
          "internalType": "struct Form.Request",
          "name": "",
          "type": "tuple"
        }
      ],
      "payable": false,
      "stateMutability": "view",
      "type": "function"
    }
  ],
  "bytecode": "0x608060405234801561001057600080fd5b50610d00806100206000396000f3fe608060405234801561001057600080fd5b506004361061009e5760003560e01c806377a4c78b1161006657806377a4c78b1461012f5780638f88708b1461014b578063b8fe40151461017b578063c47f002714610197578063db4446bf146101b35761009e565b8063086f2177146100a357806357528877146100bf5780636057361d146100db578063715b4104146100f757806372bfa79014610113575b600080fd5b6100bd60048036036100b89190810190610991565b6101cf565b005b6100d960048036036100d491908101906109d2565b6101ec565b005b6100f560048036036100f091908101906109fb565b61020f565b005b610111600480360361010c9190810190610a24565b6103ba565b005b61012d600480360361012891908101906109d2565b6103e8565b005b61014960048036036101449190810190610991565b61040a565b005b610165600480360361016091908101906109fb565b610427565b6040516101729190610b62565b60405180910390f35b610195600480360361019091908101906109d2565b6106fe565b005b6101b160048036036101ac9190810190610991565b610721565b005b6101cd60048036036101c89190810190610a24565b61073e565b005b80600160040190805190602001906101e892919061076d565b5050565b80600160050160006101000a81548161ffff021916908361ffff16021790555050565b60016000808381526020019081526020016000206000820181600001908054600181600116156101000203166002900461024a9291906107ed565b506001820160009054906101000a900467ffffffffffffffff168160010160006101000a81548167ffffffffffffffff021916908367ffffffffffffffff1602179055506001820160089054906101000a900461ffff168160010160086101000a81548161ffff021916908361ffff160217905550600282018160020190805460018160011615610100020316600290046102e69291906107ed565b506003820160009054906101000a900461ffff168160030160006101000a81548161ffff021916908361ffff1602179055506003820160029054906101000a900467ffffffffffffffff168160030160026101000a81548167ffffffffffffffff021916908367ffffffffffffffff160217905550600482018160040190805460018160011615610100020316600290046103829291906107ed565b506005820160009054906101000a900461ffff168160050160006101000a81548161ffff021916908361ffff16021790555090505050565b806001800160006101000a81548167ffffffffffffffff021916908367ffffffffffffffff16021790555050565b806001800160086101000a81548161ffff021916908361ffff16021790555050565b806001600201908051906020019061042392919061076d565b5050565b61042f610874565b60008083815260200190815260200160002060405180610100016040529081600082018054600181600116156101000203166002900480601f0160208091040260200160405190810160405280929190818152602001828054600181600116156101000203166002900480156104e65780601f106104bb576101008083540402835291602001916104e6565b820191906000526020600020905b8154815290600101906020018083116104c957829003601f168201915b505050505081526020016001820160009054906101000a900467ffffffffffffffff1667ffffffffffffffff1667ffffffffffffffff1681526020016001820160089054906101000a900461ffff1661ffff1661ffff168152602001600282018054600181600116156101000203166002900480601f0160208091040260200160405190810160405280929190818152602001828054600181600116156101000203166002900480156105da5780601f106105af576101008083540402835291602001916105da565b820191906000526020600020905b8154815290600101906020018083116105bd57829003601f168201915b505050505081526020016003820160009054906101000a900461ffff1661ffff1661ffff1681526020016003820160029054906101000a900467ffffffffffffffff1667ffffffffffffffff1667ffffffffffffffff168152602001600482018054600181600116156101000203166002900480601f0160208091040260200160405190810160405280929190818152602001828054600181600116156101000203166002900480156106ce5780601f106106a3576101008083540402835291602001916106ce565b820191906000526020600020905b8154815290600101906020018083116106b157829003601f168201915b505050505081526020016005820160009054906101000a900461ffff1661ffff1661ffff16815250509050919050565b80600160030160006101000a81548161ffff021916908361ffff16021790555050565b806001600001908051906020019061073a92919061076d565b5050565b80600160030160026101000a81548167ffffffffffffffff021916908367ffffffffffffffff16021790555050565b828054600181600116156101000203166002900490600052602060002090601f016020900481019282601f106107ae57805160ff19168380011785556107dc565b828001600101855582156107dc579182015b828111156107db5782518255916020019190600101906107c0565b5b5090506107e991906108d9565b5090565b828054600181600116156101000203166002900490600052602060002090601f016020900481019282601f106108265780548555610863565b8280016001018555821561086357600052602060002091601f016020900482015b82811115610862578254825591600101919060010190610847565b5b50905061087091906108d9565b5090565b60405180610100016040528060608152602001600067ffffffffffffffff168152602001600061ffff16815260200160608152602001600061ffff168152602001600067ffffffffffffffff16815260200160608152602001600061ffff1681525090565b6108fb91905b808211156108f75760008160009055506001016108df565b5090565b90565b600082601f83011261090f57600080fd5b813561092261091d82610bb1565b610b84565b9150808252602083016020830185838301111561093e57600080fd5b610949838284610c25565b50505092915050565b60008135905061096181610c78565b92915050565b60008135905061097681610c8f565b92915050565b60008135905061098b81610ca6565b92915050565b6000602082840312156109a357600080fd5b600082013567ffffffffffffffff8111156109bd57600080fd5b6109c9848285016108fe565b91505092915050565b6000602082840312156109e457600080fd5b60006109f284828501610952565b91505092915050565b600060208284031215610a0d57600080fd5b6000610a1b84828501610967565b91505092915050565b600060208284031215610a3657600080fd5b6000610a448482850161097c565b91505092915050565b6000610a5882610bdd565b610a628185610be8565b9350610a72818560208601610c34565b610a7b81610c67565b840191505092915050565b6000610100830160008301518482036000860152610aa48282610a4d565b9150506020830151610ab96020860182610b53565b506040830151610acc6040860182610b44565b5060608301518482036060860152610ae48282610a4d565b9150506080830151610af96080860182610b44565b5060a0830151610b0c60a0860182610b53565b5060c083015184820360c0860152610b248282610a4d565b91505060e0830151610b3960e0860182610b44565b508091505092915050565b610b4d81610bf9565b82525050565b610b5c81610c11565b82525050565b60006020820190508181036000830152610b7c8184610a86565b905092915050565b6000604051905081810181811067ffffffffffffffff82111715610ba757600080fd5b8060405250919050565b600067ffffffffffffffff821115610bc857600080fd5b601f19601f8301169050602081019050919050565b600081519050919050565b600082825260208201905092915050565b600061ffff82169050919050565b6000819050919050565b600067ffffffffffffffff82169050919050565b82818337600083830152505050565b60005b83811015610c52578082015181840152602081019050610c37565b83811115610c61576000848401525b50505050565b6000601f19601f8301169050919050565b610c8181610bf9565b8114610c8c57600080fd5b50565b610c9881610c07565b8114610ca357600080fd5b50565b610caf81610c11565b8114610cba57600080fd5b5056fea365627a7a72315820642448606a6180d14b150c094a244d6ff9cb06e43a61baf5adb1e85da903b5bd6c6578706572696d656e74616cf564736f6c63430005100040",
  "source": "// SPDX-License-Identifier: GPL-3.0\r\n\r\npragma solidity >=0.4.20;\r\npragma experimental ABIEncoderV2;\r\n\r\nimport \"./form.sol\";\r\n\r\n/**\r\n * @title Inscription\r\n * @dev Full get and set of one a request\r\n */\r\ncontract Inscription is Form {\r\n    Request request;\r\n\r\n    function setName (string memory name) public{\r\n        request.projectName = name;\r\n    }\r\n    \r\n    function setStudentCode (uint64 studentCode) public{\r\n        request.studentCode = studentCode;\r\n    }\r\n    \r\n    function setSignatureCode (uint16 signatureCode) public{\r\n        request.signatureCode = signatureCode;\r\n    }\r\n    \r\n    function setStudentEmail (string memory studentEmail) public{\r\n        request.studentEmail = studentEmail;\r\n    }\r\n    \r\n    function setInvestigationGroupCode (uint16 investigationGroupCode) public{\r\n        request.investigationGroupCode = investigationGroupCode;\r\n    }\r\n    \r\n    function setProfessorCode (uint64 professorCode) public{\r\n        request.professorCode = professorCode;\r\n    }\r\n    \r\n    function setProjectObjective (string memory projectObjective) public{\r\n        request.projectObjective = projectObjective;\r\n    }\r\n    \r\n    function setCodeBD (uint16 codeBD) public{\r\n        request.codeBD = codeBD;\r\n    }\r\n    \r\n    function store(uint direction) public {\r\n        assignments[direction] = request;\r\n    }\r\n    \r\n    function retrieve(uint direction) public view returns (Request memory){\r\n        return assignments[direction];\r\n    }\r\n}",
  "sourcePath": "D:\\Desktop\\project-contract\\contracts\\inscription.sol",
  "compiler": {
    "name": "solc",
    "version": "0.5.16+commit.9c3226ce.Emscripten.clang"
  },
  "schemaVersion": "3.4.2",
  "updatedAt": "2021-09-15T20:17:13.637Z",
  "networkType": "ethereum",
  "devdoc": {
    "details": "Full get and set of one a request",
    "methods": {},
    "title": "Inscription"
  },
  "userdoc": {
    "methods": {}
  }
}